{"abi":[{"type":"constructor","inputs":[{"name":"name","type":"string","internalType":"string"},{"name":"symbol","type":"string","internalType":"string"}],"stateMutability":"nonpayable"},{"type":"function","name":"DOMAIN_SEPARATOR","inputs":[],"outputs":[{"name":"","type":"bytes32","internalType":"bytes32"}],"stateMutability":"view"},{"type":"function","name":"allowance","inputs":[{"name":"owner","type":"address","internalType":"address"},{"name":"spender","type":"address","internalType":"address"}],"outputs":[{"name":"","type":"uint256","internalType":"uint256"}],"stateMutability":"view"},{"type":"function","name":"approve","inputs":[{"name":"spender","type":"address","internalType":"address"},{"name":"value","type":"uint256","internalType":"uint256"}],"outputs":[{"name":"","type":"bool","internalType":"bool"}],"stateMutability":"nonpayable"},{"type":"function","name":"attestationClaimed","inputs":[{"name":"","type":"uint64","internalType":"uint64"}],"outputs":[{"name":"","type":"bool","internalType":"bool"}],"stateMutability":"view"},{"type":"function","name":"attestations","inputs":[{"name":"","type":"address","internalType":"address"}],"outputs":[{"name":"","type":"uint64","internalType":"uint64"}],"stateMutability":"view"},{"type":"function","name":"balanceOf","inputs":[{"name":"account","type":"address","internalType":"address"}],"outputs":[{"name":"","type":"uint256","internalType":"uint256"}],"stateMutability":"view"},{"type":"function","name":"burn","inputs":[{"name":"value","type":"uint256","internalType":"uint256"}],"outputs":[],"stateMutability":"nonpayable"},{"type":"function","name":"burnFrom","inputs":[{"name":"account","type":"address","internalType":"address"},{"name":"value","type":"uint256","internalType":"uint256"}],"outputs":[],"stateMutability":"nonpayable"},{"type":"function","name":"claim","inputs":[{"name":"claimant","type":"address","internalType":"address"}],"outputs":[],"stateMutability":"nonpayable"},{"type":"function","name":"decimals","inputs":[],"outputs":[{"name":"","type":"uint8","internalType":"uint8"}],"stateMutability":"view"},{"type":"function","name":"eip712Domain","inputs":[],"outputs":[{"name":"fields","type":"bytes1","internalType":"bytes1"},{"name":"name","type":"string","internalType":"string"},{"name":"version","type":"string","internalType":"string"},{"name":"chainId","type":"uint256","internalType":"uint256"},{"name":"verifyingContract","type":"address","internalType":"address"},{"name":"salt","type":"bytes32","internalType":"bytes32"},{"name":"extensions","type":"uint256[]","internalType":"uint256[]"}],"stateMutability":"view"},{"type":"function","name":"mint","inputs":[{"name":"to","type":"address","internalType":"address"},{"name":"amount","type":"uint256","internalType":"uint256"}],"outputs":[],"stateMutability":"nonpayable"},{"type":"function","name":"name","inputs":[],"outputs":[{"name":"","type":"string","internalType":"string"}],"stateMutability":"view"},{"type":"function","name":"nonces","inputs":[{"name":"owner","type":"address","internalType":"address"}],"outputs":[{"name":"","type":"uint256","internalType":"uint256"}],"stateMutability":"view"},{"type":"function","name":"owner","inputs":[],"outputs":[{"name":"","type":"address","internalType":"address"}],"stateMutability":"view"},{"type":"function","name":"pause","inputs":[],"outputs":[],"stateMutability":"nonpayable"},{"type":"function","name":"paused","inputs":[],"outputs":[{"name":"","type":"bool","internalType":"bool"}],"stateMutability":"view"},{"type":"function","name":"permit","inputs":[{"name":"owner","type":"address","internalType":"address"},{"name":"spender","type":"address","internalType":"address"},{"name":"value","type":"uint256","internalType":"uint256"},{"name":"deadline","type":"uint256","internalType":"uint256"},{"name":"v","type":"uint8","internalType":"uint8"},{"name":"r","type":"bytes32","internalType":"bytes32"},{"name":"s","type":"bytes32","internalType":"bytes32"}],"outputs":[],"stateMutability":"nonpayable"},{"type":"function","name":"renounceOwnership","inputs":[],"outputs":[],"stateMutability":"nonpayable"},{"type":"function","name":"schemaId","inputs":[],"outputs":[{"name":"","type":"uint64","internalType":"uint64"}],"stateMutability":"view"},{"type":"function","name":"setAttestation","inputs":[{"name":"to","type":"address","internalType":"address"},{"name":"totalEarned","type":"uint256","internalType":"uint256"}],"outputs":[],"stateMutability":"nonpayable"},{"type":"function","name":"setSPInstance","inputs":[{"name":"instance","type":"address","internalType":"address"}],"outputs":[],"stateMutability":"nonpayable"},{"type":"function","name":"setSchemaID","inputs":[{"name":"schemaId_","type":"uint64","internalType":"uint64"}],"outputs":[],"stateMutability":"nonpayable"},{"type":"function","name":"spInstance","inputs":[],"outputs":[{"name":"","type":"address","internalType":"contract ISP"}],"stateMutability":"view"},{"type":"function","name":"symbol","inputs":[],"outputs":[{"name":"","type":"string","internalType":"string"}],"stateMutability":"view"},{"type":"function","name":"totalClaimedAmount","inputs":[{"name":"","type":"address","internalType":"address"}],"outputs":[{"name":"","type":"uint256","internalType":"uint256"}],"stateMutability":"view"},{"type":"function","name":"totalSupply","inputs":[],"outputs":[{"name":"","type":"uint256","internalType":"uint256"}],"stateMutability":"view"},{"type":"function","name":"transfer","inputs":[{"name":"to","type":"address","internalType":"address"},{"name":"value","type":"uint256","internalType":"uint256"}],"outputs":[{"name":"","type":"bool","internalType":"bool"}],"stateMutability":"nonpayable"},{"type":"function","name":"transferFrom","inputs":[{"name":"from","type":"address","internalType":"address"},{"name":"to","type":"address","internalType":"address"},{"name":"value","type":"uint256","internalType":"uint256"}],"outputs":[{"name":"","type":"bool","internalType":"bool"}],"stateMutability":"nonpayable"},{"type":"function","name":"transferOwnership","inputs":[{"name":"newOwner","type":"address","internalType":"address"}],"outputs":[],"stateMutability":"nonpayable"},{"type":"function","name":"unpause","inputs":[],"outputs":[],"stateMutability":"nonpayable"},{"type":"event","name":"Approval","inputs":[{"name":"owner","type":"address","indexed":true,"internalType":"address"},{"name":"spender","type":"address","indexed":true,"internalType":"address"},{"name":"value","type":"uint256","indexed":false,"internalType":"uint256"}],"anonymous":false},{"type":"event","name":"Claim","inputs":[{"name":"claimant","type":"address","indexed":false,"internalType":"address"},{"name":"amount","type":"uint256","indexed":false,"internalType":"uint256"}],"anonymous":false},{"type":"event","name":"EIP712DomainChanged","inputs":[],"anonymous":false},{"type":"event","name":"NewAttestation","inputs":[{"name":"to","type":"address","indexed":false,"internalType":"address"},{"name":"attestationId","type":"uint64","indexed":false,"internalType":"uint64"}],"anonymous":false},{"type":"event","name":"OwnershipTransferred","inputs":[{"name":"previousOwner","type":"address","indexed":true,"internalType":"address"},{"name":"newOwner","type":"address","indexed":true,"internalType":"address"}],"anonymous":false},{"type":"event","name":"Paused","inputs":[{"name":"account","type":"address","indexed":false,"internalType":"address"}],"anonymous":false},{"type":"event","name":"Transfer","inputs":[{"name":"from","type":"address","indexed":true,"internalType":"address"},{"name":"to","type":"address","indexed":true,"internalType":"address"},{"name":"value","type":"uint256","indexed":false,"internalType":"uint256"}],"anonymous":false},{"type":"event","name":"Unpaused","inputs":[{"name":"account","type":"address","indexed":false,"internalType":"address"}],"anonymous":false},{"type":"error","name":"ECDSAInvalidSignature","inputs":[]},{"type":"error","name":"ECDSAInvalidSignatureLength","inputs":[{"name":"length","type":"uint256","internalType":"uint256"}]},{"type":"error","name":"ECDSAInvalidSignatureS","inputs":[{"name":"s","type":"bytes32","internalType":"bytes32"}]},{"type":"error","name":"ERC20InsufficientAllowance","inputs":[{"name":"spender","type":"address","internalType":"address"},{"name":"allowance","type":"uint256","internalType":"uint256"},{"name":"needed","type":"uint256","internalType":"uint256"}]},{"type":"error","name":"ERC20InsufficientBalance","inputs":[{"name":"sender","type":"address","internalType":"address"},{"name":"balance","type":"uint256","internalType":"uint256"},{"name":"needed","type":"uint256","internalType":"uint256"}]},{"type":"error","name":"ERC20InvalidApprover","inputs":[{"name":"approver","type":"address","internalType":"address"}]},{"type":"error","name":"ERC20InvalidReceiver","inputs":[{"name":"receiver","type":"address","internalType":"address"}]},{"type":"error","name":"ERC20InvalidSender","inputs":[{"name":"sender","type":"address","internalType":"address"}]},{"type":"error","name":"ERC20InvalidSpender","inputs":[{"name":"spender","type":"address","internalType":"address"}]},{"type":"error","name":"ERC2612ExpiredSignature","inputs":[{"name":"deadline","type":"uint256","internalType":"uint256"}]},{"type":"error","name":"ERC2612InvalidSigner","inputs":[{"name":"signer","type":"address","internalType":"address"},{"name":"owner","type":"address","internalType":"address"}]},{"type":"error","name":"EnforcedPause","inputs":[]},{"type":"error","name":"ExpectedPause","inputs":[]},{"type":"error","name":"InvalidAccountNonce","inputs":[{"name":"account","type":"address","internalType":"address"},{"name":"currentNonce","type":"uint256","internalType":"uint256"}]},{"type":"error","name":"InvalidShortString","inputs":[]},{"type":"error","name":"OwnableInvalidOwner","inputs":[{"name":"owner","type":"address","internalType":"address"}]},{"type":"error","name":"OwnableUnauthorizedAccount","inputs":[{"name":"account","type":"address","internalType":"address"}]},{"type":"error","name":"ReentrancyGuardReentrantCall","inputs":[]},{"type":"error","name":"StringTooLong","inputs":[{"name":"str","type":"string","internalType":"string"}]}],"bytecode":{"object":"0x6101606040523480156200001257600080fd5b506040516200246938038062002469833981016040819052620000359162000333565b8180604051806040016040528060018152602001603160f81b815250620000616200018c60201b60201c565b858560036200007183826200042e565b5060046200008082826200042e565b50506005805460ff19169055506001600160a01b038116620000bd57604051631e4fbdf760e01b8152600060048201526024015b60405180910390fd5b620000c88162000190565b50620000d6826006620001ea565b61012052620000e7816007620001ea565b61014052815160208084019190912060e052815190820120610100524660a0526200017560e05161010051604080517f8b73c3c69bb8fe3d512ecc4cf759cc79239f7b179b0ffacaa9a75d522b39400f60208201529081019290925260608201524660808201523060a082015260009060c00160405160208183030381529060405280519060200120905090565b60805250503060c052505060016009555062000554565b3390565b600580546001600160a01b03838116610100818102610100600160a81b031985161790945560405193909204169182907f8be0079c531659141344cd1fd0a4f28419497f9722a3daafe3b4186f6b6457e090600090a35050565b60006020835110156200020a57620002028362000223565b90506200021d565b816200021784826200042e565b5060ff90505b92915050565b600080829050601f8151111562000251578260405163305a27a960e01b8152600401620000b49190620004fa565b80516200025e826200052f565b179392505050565b634e487b7160e01b600052604160045260246000fd5b60005b83811015620002995781810151838201526020016200027f565b50506000910152565b600082601f830112620002b457600080fd5b81516001600160401b0380821115620002d157620002d162000266565b604051601f8301601f19908116603f01168101908282118183101715620002fc57620002fc62000266565b816040528381528660208588010111156200031657600080fd5b620003298460208301602089016200027c565b9695505050505050565b600080604083850312156200034757600080fd5b82516001600160401b03808211156200035f57600080fd5b6200036d86838701620002a2565b935060208501519150808211156200038457600080fd5b506200039385828601620002a2565b9150509250929050565b600181811c90821680620003b257607f821691505b602082108103620003d357634e487b7160e01b600052602260045260246000fd5b50919050565b601f82111562000429576000816000526020600020601f850160051c81016020861015620004045750805b601f850160051c820191505b81811015620004255782815560010162000410565b5050505b505050565b81516001600160401b038111156200044a576200044a62000266565b62000462816200045b84546200039d565b84620003d9565b602080601f8311600181146200049a5760008415620004815750858301515b600019600386901b1c1916600185901b17855562000425565b600085815260208120601f198616915b82811015620004cb57888601518255948401946001909101908401620004aa565b5085821015620004ea5787850151600019600388901b60f8161c191681555b5050505050600190811b01905550565b60208152600082518060208401526200051b8160408501602087016200027c565b601f01601f19169190910160400192915050565b80516020808301519190811015620003d35760001960209190910360031b1b16919050565b60805160a05160c05160e051610100516101205161014051611eba620005af6000396000611127015260006110fa01526000610f8301526000610f5b01526000610eb601526000610ee001526000610f0a0152611eba6000f3fe608060405234801561001057600080fd5b50600436106101e55760003560e01c80635c975abb1161010f5780638e9d660f116100a2578063d505accf11610071578063d505accf1461043f578063dd62ed3e14610452578063e0da7a941461048b578063f2fde38b146104ae57600080fd5b80638e9d660f146103fe57806395d89b4114610411578063a8c5dc3314610419578063a9059cbb1461042c57600080fd5b80637ecebe00116100de5780637ecebe001461039e5780638456cb59146103b157806384b0196e146103b95780638da5cb5b146103d457600080fd5b80635c975abb1461034f57806370a082311461035a578063715018a61461038357806379cc67901461038b57600080fd5b806320357048116101875780633f4ba83a116101565780633f4ba83a1461030e57806340c10f191461031657806342966c681461032957806354b8fa431461033c57600080fd5b806320357048146102bb57806323b872dd146102e4578063313ce567146102f75780633644e5151461030657600080fd5b8063095ea7b3116101c3578063095ea7b31461024f578063128a34571461027257806318160ddd146102a05780631e83409a146102a857600080fd5b806305ca8ee3146101ea57806306fdde03146101ff578063075b1a091461021d575b600080fd5b6101fd6101f83660046116bb565b6104c1565b005b6102076104f6565b604051610214919061172f565b60405180910390f35b600a5461023790600160a01b90046001600160401b031681565b6040516001600160401b039091168152602001610214565b61026261025d366004611757565b610588565b6040519015158152602001610214565b610292610280366004611783565b600c6020526000908152604090205481565b604051908152602001610214565b600254610292565b6101fd6102b6366004611783565b6105a2565b6102376102c9366004611783565b600b602052600090815260409020546001600160401b031681565b6102626102f23660046117a0565b610859565b60405160128152602001610214565b61029261087d565b6101fd61088c565b6101fd610324366004611757565b61089e565b6101fd6103373660046117e1565b6108b4565b6101fd61034a366004611757565b6108be565b60055460ff16610262565b610292610368366004611783565b6001600160a01b031660009081526020819052604090205490565b6101fd610ad0565b6101fd610399366004611757565b610ae2565b6102926103ac366004611783565b610af7565b6101fd610b15565b6103c1610b25565b60405161021497969594939291906117fa565b60055461010090046001600160a01b03165b6040516001600160a01b039091168152602001610214565b6101fd61040c366004611783565b610b6b565b610207610b95565b600a546103e6906001600160a01b031681565b61026261043a366004611757565b610ba4565b6101fd61044d366004611893565b610bb2565b61029261046036600461190a565b6001600160a01b03918216600090815260016020908152604080832093909416825291909152205490565b6102626104993660046116bb565b600d6020526000908152604090205460ff1681565b6101fd6104bc366004611783565b610cec565b6104c9610d27565b600a80546001600160401b03909216600160a01b0267ffffffffffffffff60a01b19909216919091179055565b60606003805461050590611943565b80601f016020809104026020016040519081016040528092919081815260200182805461053190611943565b801561057e5780601f106105535761010080835404028352916020019161057e565b820191906000526020600020905b81548152906001019060200180831161056157829003601f168201915b5050505050905090565b600033610596818585610d5a565b60019150505b92915050565b6105aa610d6c565b6001600160a01b0381166000908152600b60205260408120546001600160401b0316908190036106215760405162461bcd60e51b815260206004820152601a60248201527f4174746573746174696f6e20646f6573206e6f7420657869737400000000000060448201526064015b60405180910390fd5b6001600160401b0381166000908152600d602052604090205460ff161561068a5760405162461bcd60e51b815260206004820152601b60248201527f4174746573746174696f6e20616c726561647920636c61696d656400000000006044820152606401610618565b600a5460405162c44a5160e71b81526001600160401b03831660048201526000916001600160a01b031690636225288090602401600060405180830381865afa1580156106db573d6000803e3d6000fd5b505050506040513d6000823e601f3d908101601f191682016040526107039190810190611b2f565b90506000808261012001518060200190518101906107219190611c4e565b6001600160a01b0382166000908152600c60205260409020549193509150808210156107995760405162461bcd60e51b815260206004820152602160248201527f496e76616c6964206561726e656420616d6f756e742063616c63756c6174696f6044820152603760f91b6064820152608401610618565b60006107a58284611c92565b6001600160a01b0385166000908152600c60205260408120805492935083929091906107d2908490611ca5565b90915550506001600160401b0386166000908152600d60205260409020805460ff191660011790556108048482610d96565b604080516001600160a01b0389168152602081018390527f47cee97cb7acd717b3c0aa1435d004cd5b3c8c57d70dbceb4e4458bbd60e39d4910160405180910390a15050505050506108566001600955565b50565b600033610867858285610dcc565b610872858585610e4a565b506001949350505050565b6000610887610ea9565b905090565b610894610d27565b61089c610fd4565b565b6108a6610d27565b6108b08282610d96565b5050565b6108563382611026565b6108c6610d27565b604080516001600160a01b038416602082015280820183905281518082038301815260016060830181815260a0840190945290926000929091906080015b606081526020019060019003908161090457905050604080516001600160a01b0387166020820152919250016040516020818303038152906040528160008151811061095257610952611cb8565b6020908102919091018101919091526040805161014081018252600a546001600160401b03600160a01b8204811683526001600160a01b038981166000908152600b875285812054909216958401959095528284018190526060830181905230608084015260a0830181905260c0830181905260e0830181905261010083018690526101208301879052925163b82916cb60e01b81529193169063b82916cb90610a00908590600401611d60565b6020604051808303816000875af1158015610a1f573d6000803e3d6000fd5b505050506040513d601f19601f82011682018060405250810190610a439190611e90565b6001600160a01b0387166000818152600b60209081526040808320805467ffffffffffffffff19166001600160401b038716908117909155808452600d835292819020805460ff191690558051938452908301919091529192507f5085971cccd35f0f326751bc15a120156c30ea9ecac7123f09fbf9f3b0ecbc1e910160405180910390a1505050505050565b610ad8610d27565b61089c600061105c565b610aed823383610dcc565b6108b08282611026565b6001600160a01b03811660009081526008602052604081205461059c565b610b1d610d27565b61089c6110b6565b600060608060008060006060610b396110f3565b610b41611120565b60408051600080825260208201909252600f60f81b9b939a50919850469750309650945092509050565b610b73610d27565b600a80546001600160a01b0319166001600160a01b0392909216919091179055565b60606004805461050590611943565b600033610596818585610e4a565b83421115610bd65760405163313c898160e11b815260048101859052602401610618565b60007f6e71edae12b1b97f4d1f60370fef10105fa2faae0126114a169c64845d6126c9888888610c238c6001600160a01b0316600090815260086020526040902080546001810190915590565b6040805160208101969096526001600160a01b0394851690860152929091166060840152608083015260a082015260c0810186905260e0016040516020818303038152906040528051906020012090506000610c7e8261114d565b90506000610c8e8287878761117a565b9050896001600160a01b0316816001600160a01b031614610cd5576040516325c0072360e11b81526001600160a01b0380831660048301528b166024820152604401610618565b610ce08a8a8a610d5a565b50505050505050505050565b610cf4610d27565b6001600160a01b038116610d1e57604051631e4fbdf760e01b815260006004820152602401610618565b6108568161105c565b6005546001600160a01b0361010090910416331461089c5760405163118cdaa760e01b8152336004820152602401610618565b610d6783838360016111a8565b505050565b600260095403610d8f57604051633ee5aeb560e01b815260040160405180910390fd5b6002600955565b6001600160a01b038216610dc05760405163ec442f0560e01b815260006004820152602401610618565b6108b06000838361127d565b6001600160a01b038381166000908152600160209081526040808320938616835292905220546000198114610e445781811015610e3557604051637dc7a0d960e11b81526001600160a01b03841660048201526024810182905260448101839052606401610618565b610e44848484840360006111a8565b50505050565b6001600160a01b038316610e7457604051634b637e8f60e11b815260006004820152602401610618565b6001600160a01b038216610e9e5760405163ec442f0560e01b815260006004820152602401610618565b610d6783838361127d565b6000306001600160a01b037f000000000000000000000000000000000000000000000000000000000000000016148015610f0257507f000000000000000000000000000000000000000000000000000000000000000046145b15610f2c57507f000000000000000000000000000000000000000000000000000000000000000090565b610887604080517f8b73c3c69bb8fe3d512ecc4cf759cc79239f7b179b0ffacaa9a75d522b39400f60208201527f0000000000000000000000000000000000000000000000000000000000000000918101919091527f000000000000000000000000000000000000000000000000000000000000000060608201524660808201523060a082015260009060c00160405160208183030381529060405280519060200120905090565b610fdc611288565b6005805460ff191690557f5db9ee0a495bf2e6ff9c91a7834c1ba4fdd244a5e8aa4e537bd38aeae4b073aa335b6040516001600160a01b03909116815260200160405180910390a1565b6001600160a01b03821661105057604051634b637e8f60e11b815260006004820152602401610618565b6108b08260008361127d565b600580546001600160a01b03838116610100818102610100600160a81b031985161790945560405193909204169182907f8be0079c531659141344cd1fd0a4f28419497f9722a3daafe3b4186f6b6457e090600090a35050565b6110be6112ab565b6005805460ff191660011790557f62e78cea01bee320cd4e420270b5ea74000d11b0c9f74754ebdbfc544b05a2586110093390565b60606108877f000000000000000000000000000000000000000000000000000000000000000060066112cf565b60606108877f000000000000000000000000000000000000000000000000000000000000000060076112cf565b600061059c61115a610ea9565b8360405161190160f01b8152600281019290925260228201526042902090565b60008060008061118c8888888861137a565b92509250925061119c8282611449565b50909695505050505050565b6001600160a01b0384166111d25760405163e602df0560e01b815260006004820152602401610618565b6001600160a01b0383166111fc57604051634a1406b160e11b815260006004820152602401610618565b6001600160a01b0380851660009081526001602090815260408083209387168352929052208290558015610e4457826001600160a01b0316846001600160a01b03167f8c5be1e5ebec7d5bd14f71427d1e84f3dd0314c0f7b2291e5b200ac8c7c3b9258460405161126f91815260200190565b60405180910390a350505050565b610d67838383611502565b60055460ff1661089c57604051638dfc202b60e01b815260040160405180910390fd5b60055460ff161561089c5760405163d93c066560e01b815260040160405180910390fd5b606060ff83146112e9576112e283611515565b905061059c565b8180546112f590611943565b80601f016020809104026020016040519081016040528092919081815260200182805461132190611943565b801561136e5780601f106113435761010080835404028352916020019161136e565b820191906000526020600020905b81548152906001019060200180831161135157829003601f168201915b5050505050905061059c565b600080807f7fffffffffffffffffffffffffffffff5d576e7357a4501ddfe92f46681b20a08411156113b5575060009150600390508261143f565b604080516000808252602082018084528a905260ff891692820192909252606081018790526080810186905260019060a0016020604051602081039080840390855afa158015611409573d6000803e3d6000fd5b5050604051601f1901519150506001600160a01b0381166114355750600092506001915082905061143f565b9250600091508190505b9450945094915050565b600082600381111561145d5761145d611cce565b03611466575050565b600182600381111561147a5761147a611cce565b036114985760405163f645eedf60e01b815260040160405180910390fd5b60028260038111156114ac576114ac611cce565b036114cd5760405163fce698f760e01b815260048101829052602401610618565b60038260038111156114e1576114e1611cce565b036108b0576040516335e2f38360e21b815260048101829052602401610618565b61150a6112ab565b610d67838383611554565b606060006115228361167e565b604080516020808252818301909252919250600091906020820181803683375050509182525060208101929092525090565b6001600160a01b03831661157f5780600260008282546115749190611ca5565b909155506115f19050565b6001600160a01b038316600090815260208190526040902054818110156115d25760405163391434e360e21b81526001600160a01b03851660048201526024810182905260448101839052606401610618565b6001600160a01b03841660009081526020819052604090209082900390555b6001600160a01b03821661160d5760028054829003905561162c565b6001600160a01b03821660009081526020819052604090208054820190555b816001600160a01b0316836001600160a01b03167fddf252ad1be2c89b69c2b068fc378daa952ba7f163c4a11628f55a4df523b3ef8360405161167191815260200190565b60405180910390a3505050565b600060ff8216601f81111561059c57604051632cd44ac360e21b815260040160405180910390fd5b6001600160401b038116811461085657600080fd5b6000602082840312156116cd57600080fd5b81356116d8816116a6565b9392505050565b60005b838110156116fa5781810151838201526020016116e2565b50506000910152565b6000815180845261171b8160208601602086016116df565b601f01601f19169290920160200192915050565b6020815260006116d86020830184611703565b6001600160a01b038116811461085657600080fd5b6000806040838503121561176a57600080fd5b823561177581611742565b946020939093013593505050565b60006020828403121561179557600080fd5b81356116d881611742565b6000806000606084860312156117b557600080fd5b83356117c081611742565b925060208401356117d081611742565b929592945050506040919091013590565b6000602082840312156117f357600080fd5b5035919050565b60ff60f81b881681526000602060e0602084015261181b60e084018a611703565b838103604085015261182d818a611703565b606085018990526001600160a01b038816608086015260a0850187905284810360c08601528551808252602080880193509091019060005b8181101561188157835183529284019291840191600101611865565b50909c9b505050505050505050505050565b600080600080600080600060e0888a0312156118ae57600080fd5b87356118b981611742565b965060208801356118c981611742565b95506040880135945060608801359350608088013560ff811681146118ed57600080fd5b9699959850939692959460a0840135945060c09093013592915050565b6000806040838503121561191d57600080fd5b823561192881611742565b9150602083013561193881611742565b809150509250929050565b600181811c9082168061195757607f821691505b60208210810361197757634e487b7160e01b600052602260045260246000fd5b50919050565b634e487b7160e01b600052604160045260246000fd5b60405161014081016001600160401b03811182821017156119b6576119b661197d565b60405290565b604051601f8201601f191681016001600160401b03811182821017156119e4576119e461197d565b604052919050565b80516119f7816116a6565b919050565b80516119f781611742565b8051600481106119f757600080fd5b805180151581146119f757600080fd5b600082601f830112611a3757600080fd5b81516001600160401b03811115611a5057611a5061197d565b611a63601f8201601f19166020016119bc565b818152846020838601011115611a7857600080fd5b611a898260208301602087016116df565b949350505050565b600082601f830112611aa257600080fd5b815160206001600160401b0380831115611abe57611abe61197d565b8260051b611acd8382016119bc565b9384528581018301938381019088861115611ae757600080fd5b84880192505b85831015611b2357825184811115611b055760008081fd5b611b138a87838c0101611a26565b8352509184019190840190611aed565b98975050505050505050565b600060208284031215611b4157600080fd5b81516001600160401b0380821115611b5857600080fd5b908301906101408286031215611b6d57600080fd5b611b75611993565b611b7e836119ec565b8152611b8c602084016119ec565b6020820152611b9d604084016119ec565b6040820152611bae606084016119ec565b6060820152611bbf608084016119fc565b6080820152611bd060a084016119ec565b60a0820152611be160c08401611a07565b60c0820152611bf260e08401611a16565b60e08201526101008084015183811115611c0b57600080fd5b611c1788828701611a91565b8284015250506101208084015183811115611c3157600080fd5b611c3d88828701611a26565b918301919091525095945050505050565b60008060408385031215611c6157600080fd5b8251611c6c81611742565b6020939093015192949293505050565b634e487b7160e01b600052601160045260246000fd5b8181038181111561059c5761059c611c7c565b8082018082111561059c5761059c611c7c565b634e487b7160e01b600052603260045260246000fd5b634e487b7160e01b600052602160045260246000fd5b60048110611d0257634e487b7160e01b600052602160045260246000fd5b9052565b60008282518085526020808601955060208260051b8401016020860160005b84811015611d5357601f19868403018952611d41838351611703565b98840198925090830190600101611d25565b5090979650505050505050565b60808152611d7a6080820183516001600160401b03169052565b60006020830151611d9660a08401826001600160401b03169052565b5060408301516001600160401b0390811660c084015260608401511660e083015260808301516001600160a01b0381166101008085019190915260a08501519150610120611dee818601846001600160401b03169052565b60c08601519250610140611e0481870185611ce4565b60e08701511515610160870152828701516101808701919091529250611e2e6101c0860184611d06565b90860151858203607f19016101a08701529092509050611e4e8282611703565b9150508281036020840152611e67816000815260200190565b838103604085015260008152905060208101838103606085015260008152905060208101611a89565b600060208284031215611ea257600080fd5b81516116d8816116a656fea164736f6c6343000818000a","linkReferences":{}},"methodIdentifiers":{"DOMAIN_SEPARATOR()":"3644e515","allowance(address,address)":"dd62ed3e","approve(address,uint256)":"095ea7b3","attestationClaimed(uint64)":"e0da7a94","attestations(address)":"20357048","balanceOf(address)":"70a08231","burn(uint256)":"42966c68","burnFrom(address,uint256)":"79cc6790","claim(address)":"1e83409a","decimals()":"313ce567","eip712Domain()":"84b0196e","mint(address,uint256)":"40c10f19","name()":"06fdde03","nonces(address)":"7ecebe00","owner()":"8da5cb5b","pause()":"8456cb59","paused()":"5c975abb","permit(address,address,uint256,uint256,uint8,bytes32,bytes32)":"d505accf","renounceOwnership()":"715018a6","schemaId()":"075b1a09","setAttestation(address,uint256)":"54b8fa43","setSPInstance(address)":"8e9d660f","setSchemaID(uint64)":"05ca8ee3","spInstance()":"a8c5dc33","symbol()":"95d89b41","totalClaimedAmount(address)":"128a3457","totalSupply()":"18160ddd","transfer(address,uint256)":"a9059cbb","transferFrom(address,address,uint256)":"23b872dd","transferOwnership(address)":"f2fde38b","unpause()":"3f4ba83a"},"storageLayout":{"storage":[{"astId":963,"contract":"src/BoostProtocol.sol:BoostProtocol","label":"_balances","offset":0,"slot":"0","type":"t_mapping(t_address,t_uint256)"},{"astId":969,"contract":"src/BoostProtocol.sol:BoostProtocol","label":"_allowances","offset":0,"slot":"1","type":"t_mapping(t_address,t_mapping(t_address,t_uint256))"},{"astId":971,"contract":"src/BoostProtocol.sol:BoostProtocol","label":"_totalSupply","offset":0,"slot":"2","type":"t_uint256"},{"astId":973,"contract":"src/BoostProtocol.sol:BoostProtocol","label":"_name","offset":0,"slot":"3","type":"t_string_storage"},{"astId":975,"contract":"src/BoostProtocol.sol:BoostProtocol","label":"_symbol","offset":0,"slot":"4","type":"t_string_storage"},{"astId":1936,"contract":"src/BoostProtocol.sol:BoostProtocol","label":"_paused","offset":0,"slot":"5","type":"t_bool"},{"astId":639,"contract":"src/BoostProtocol.sol:BoostProtocol","label":"_owner","offset":1,"slot":"5","type":"t_address"},{"astId":3080,"contract":"src/BoostProtocol.sol:BoostProtocol","label":"_nameFallback","offset":0,"slot":"6","type":"t_string_storage"},{"astId":3082,"contract":"src/BoostProtocol.sol:BoostProtocol","label":"_versionFallback","offset":0,"slot":"7","type":"t_string_storage"},{"astId":1873,"contract":"src/BoostProtocol.sol:BoostProtocol","label":"_nonces","offset":0,"slot":"8","type":"t_mapping(t_address,t_uint256)"},{"astId":2055,"contract":"src/BoostProtocol.sol:BoostProtocol","label":"_status","offset":0,"slot":"9","type":"t_uint256"},{"astId":4538,"contract":"src/BoostProtocol.sol:BoostProtocol","label":"spInstance","offset":0,"slot":"10","type":"t_contract(ISP)495"},{"astId":4540,"contract":"src/BoostProtocol.sol:BoostProtocol","label":"schemaId","offset":20,"slot":"10","type":"t_uint64"},{"astId":4544,"contract":"src/BoostProtocol.sol:BoostProtocol","label":"attestations","offset":0,"slot":"11","type":"t_mapping(t_address,t_uint64)"},{"astId":4548,"contract":"src/BoostProtocol.sol:BoostProtocol","label":"totalClaimedAmount","offset":0,"slot":"12","type":"t_mapping(t_address,t_uint256)"},{"astId":4552,"contract":"src/BoostProtocol.sol:BoostProtocol","label":"attestationClaimed","offset":0,"slot":"13","type":"t_mapping(t_uint64,t_bool)"}],"types":{"t_address":{"encoding":"inplace","label":"address","numberOfBytes":"20"},"t_bool":{"encoding":"inplace","label":"bool","numberOfBytes":"1"},"t_contract(ISP)495":{"encoding":"inplace","label":"contract ISP","numberOfBytes":"20"},"t_mapping(t_address,t_mapping(t_address,t_uint256))":{"encoding":"mapping","key":"t_address","label":"mapping(address => mapping(address => uint256))","numberOfBytes":"32","value":"t_mapping(t_address,t_uint256)"},"t_mapping(t_address,t_uint256)":{"encoding":"mapping","key":"t_address","label":"mapping(address => uint256)","numberOfBytes":"32","value":"t_uint256"},"t_mapping(t_address,t_uint64)":{"encoding":"mapping","key":"t_address","label":"mapping(address => uint64)","numberOfBytes":"32","value":"t_uint64"},"t_mapping(t_uint64,t_bool)":{"encoding":"mapping","key":"t_uint64","label":"mapping(uint64 => bool)","numberOfBytes":"32","value":"t_bool"},"t_string_storage":{"encoding":"bytes","label":"string","numberOfBytes":"32"},"t_uint256":{"encoding":"inplace","label":"uint256","numberOfBytes":"32"},"t_uint64":{"encoding":"inplace","label":"uint64","numberOfBytes":"8"}}},"id":28}