{"abi":[{"type":"constructor","inputs":[{"name":"name","type":"string","internalType":"string"},{"name":"symbol","type":"string","internalType":"string"}],"stateMutability":"nonpayable"},{"type":"function","name":"DOMAIN_SEPARATOR","inputs":[],"outputs":[{"name":"","type":"bytes32","internalType":"bytes32"}],"stateMutability":"view"},{"type":"function","name":"allowance","inputs":[{"name":"owner","type":"address","internalType":"address"},{"name":"spender","type":"address","internalType":"address"}],"outputs":[{"name":"","type":"uint256","internalType":"uint256"}],"stateMutability":"view"},{"type":"function","name":"approve","inputs":[{"name":"spender","type":"address","internalType":"address"},{"name":"value","type":"uint256","internalType":"uint256"}],"outputs":[{"name":"","type":"bool","internalType":"bool"}],"stateMutability":"nonpayable"},{"type":"function","name":"attestationClaimed","inputs":[{"name":"","type":"uint64","internalType":"uint64"}],"outputs":[{"name":"","type":"bool","internalType":"bool"}],"stateMutability":"view"},{"type":"function","name":"attestations","inputs":[{"name":"","type":"address","internalType":"address"}],"outputs":[{"name":"","type":"uint64","internalType":"uint64"}],"stateMutability":"view"},{"type":"function","name":"balanceOf","inputs":[{"name":"account","type":"address","internalType":"address"}],"outputs":[{"name":"","type":"uint256","internalType":"uint256"}],"stateMutability":"view"},{"type":"function","name":"burn","inputs":[{"name":"value","type":"uint256","internalType":"uint256"}],"outputs":[],"stateMutability":"nonpayable"},{"type":"function","name":"burnFrom","inputs":[{"name":"account","type":"address","internalType":"address"},{"name":"value","type":"uint256","internalType":"uint256"}],"outputs":[],"stateMutability":"nonpayable"},{"type":"function","name":"claim","inputs":[{"name":"claimant","type":"address","internalType":"address"}],"outputs":[],"stateMutability":"nonpayable"},{"type":"function","name":"decimals","inputs":[],"outputs":[{"name":"","type":"uint8","internalType":"uint8"}],"stateMutability":"view"},{"type":"function","name":"eip712Domain","inputs":[],"outputs":[{"name":"fields","type":"bytes1","internalType":"bytes1"},{"name":"name","type":"string","internalType":"string"},{"name":"version","type":"string","internalType":"string"},{"name":"chainId","type":"uint256","internalType":"uint256"},{"name":"verifyingContract","type":"address","internalType":"address"},{"name":"salt","type":"bytes32","internalType":"bytes32"},{"name":"extensions","type":"uint256[]","internalType":"uint256[]"}],"stateMutability":"view"},{"type":"function","name":"epochId","inputs":[],"outputs":[{"name":"","type":"uint256","internalType":"uint256"}],"stateMutability":"view"},{"type":"function","name":"mint","inputs":[{"name":"to","type":"address","internalType":"address"},{"name":"amount","type":"uint256","internalType":"uint256"}],"outputs":[],"stateMutability":"nonpayable"},{"type":"function","name":"name","inputs":[],"outputs":[{"name":"","type":"string","internalType":"string"}],"stateMutability":"view"},{"type":"function","name":"nonces","inputs":[{"name":"owner","type":"address","internalType":"address"}],"outputs":[{"name":"","type":"uint256","internalType":"uint256"}],"stateMutability":"view"},{"type":"function","name":"owner","inputs":[],"outputs":[{"name":"","type":"address","internalType":"address"}],"stateMutability":"view"},{"type":"function","name":"pause","inputs":[],"outputs":[],"stateMutability":"nonpayable"},{"type":"function","name":"paused","inputs":[],"outputs":[{"name":"","type":"bool","internalType":"bool"}],"stateMutability":"view"},{"type":"function","name":"permit","inputs":[{"name":"owner","type":"address","internalType":"address"},{"name":"spender","type":"address","internalType":"address"},{"name":"value","type":"uint256","internalType":"uint256"},{"name":"deadline","type":"uint256","internalType":"uint256"},{"name":"v","type":"uint8","internalType":"uint8"},{"name":"r","type":"bytes32","internalType":"bytes32"},{"name":"s","type":"bytes32","internalType":"bytes32"}],"outputs":[],"stateMutability":"nonpayable"},{"type":"function","name":"renounceOwnership","inputs":[],"outputs":[],"stateMutability":"nonpayable"},{"type":"function","name":"schemaId","inputs":[],"outputs":[{"name":"","type":"uint64","internalType":"uint64"}],"stateMutability":"view"},{"type":"function","name":"setAttestation","inputs":[{"name":"to","type":"address","internalType":"address"},{"name":"totalEarned","type":"uint256","internalType":"uint256"}],"outputs":[],"stateMutability":"nonpayable"},{"type":"function","name":"setEpochId","inputs":[{"name":"epochId_","type":"uint256","internalType":"uint256"}],"outputs":[],"stateMutability":"nonpayable"},{"type":"function","name":"setSPInstance","inputs":[{"name":"instance","type":"address","internalType":"address"}],"outputs":[],"stateMutability":"nonpayable"},{"type":"function","name":"setSchemaID","inputs":[{"name":"schemaId_","type":"uint64","internalType":"uint64"}],"outputs":[],"stateMutability":"nonpayable"},{"type":"function","name":"spInstance","inputs":[],"outputs":[{"name":"","type":"address","internalType":"contract ISP"}],"stateMutability":"view"},{"type":"function","name":"symbol","inputs":[],"outputs":[{"name":"","type":"string","internalType":"string"}],"stateMutability":"view"},{"type":"function","name":"totalClaimedAmount","inputs":[{"name":"","type":"address","internalType":"address"}],"outputs":[{"name":"","type":"uint256","internalType":"uint256"}],"stateMutability":"view"},{"type":"function","name":"totalSupply","inputs":[],"outputs":[{"name":"","type":"uint256","internalType":"uint256"}],"stateMutability":"view"},{"type":"function","name":"transfer","inputs":[{"name":"to","type":"address","internalType":"address"},{"name":"value","type":"uint256","internalType":"uint256"}],"outputs":[{"name":"","type":"bool","internalType":"bool"}],"stateMutability":"nonpayable"},{"type":"function","name":"transferFrom","inputs":[{"name":"from","type":"address","internalType":"address"},{"name":"to","type":"address","internalType":"address"},{"name":"value","type":"uint256","internalType":"uint256"}],"outputs":[{"name":"","type":"bool","internalType":"bool"}],"stateMutability":"nonpayable"},{"type":"function","name":"transferOwnership","inputs":[{"name":"newOwner","type":"address","internalType":"address"}],"outputs":[],"stateMutability":"nonpayable"},{"type":"function","name":"unpause","inputs":[],"outputs":[],"stateMutability":"nonpayable"},{"type":"function","name":"usedEpochId","inputs":[{"name":"","type":"uint256","internalType":"uint256"}],"outputs":[{"name":"","type":"bool","internalType":"bool"}],"stateMutability":"view"},{"type":"event","name":"Approval","inputs":[{"name":"owner","type":"address","indexed":true,"internalType":"address"},{"name":"spender","type":"address","indexed":true,"internalType":"address"},{"name":"value","type":"uint256","indexed":false,"internalType":"uint256"}],"anonymous":false},{"type":"event","name":"Claim","inputs":[{"name":"claimant","type":"address","indexed":false,"internalType":"address"},{"name":"amount","type":"uint256","indexed":false,"internalType":"uint256"}],"anonymous":false},{"type":"event","name":"EIP712DomainChanged","inputs":[],"anonymous":false},{"type":"event","name":"NewAttestation","inputs":[{"name":"to","type":"address","indexed":false,"internalType":"address"},{"name":"attestationId","type":"uint64","indexed":false,"internalType":"uint64"}],"anonymous":false},{"type":"event","name":"OwnershipTransferred","inputs":[{"name":"previousOwner","type":"address","indexed":true,"internalType":"address"},{"name":"newOwner","type":"address","indexed":true,"internalType":"address"}],"anonymous":false},{"type":"event","name":"Paused","inputs":[{"name":"account","type":"address","indexed":false,"internalType":"address"}],"anonymous":false},{"type":"event","name":"Transfer","inputs":[{"name":"from","type":"address","indexed":true,"internalType":"address"},{"name":"to","type":"address","indexed":true,"internalType":"address"},{"name":"value","type":"uint256","indexed":false,"internalType":"uint256"}],"anonymous":false},{"type":"event","name":"Unpaused","inputs":[{"name":"account","type":"address","indexed":false,"internalType":"address"}],"anonymous":false},{"type":"error","name":"ECDSAInvalidSignature","inputs":[]},{"type":"error","name":"ECDSAInvalidSignatureLength","inputs":[{"name":"length","type":"uint256","internalType":"uint256"}]},{"type":"error","name":"ECDSAInvalidSignatureS","inputs":[{"name":"s","type":"bytes32","internalType":"bytes32"}]},{"type":"error","name":"ERC20InsufficientAllowance","inputs":[{"name":"spender","type":"address","internalType":"address"},{"name":"allowance","type":"uint256","internalType":"uint256"},{"name":"needed","type":"uint256","internalType":"uint256"}]},{"type":"error","name":"ERC20InsufficientBalance","inputs":[{"name":"sender","type":"address","internalType":"address"},{"name":"balance","type":"uint256","internalType":"uint256"},{"name":"needed","type":"uint256","internalType":"uint256"}]},{"type":"error","name":"ERC20InvalidApprover","inputs":[{"name":"approver","type":"address","internalType":"address"}]},{"type":"error","name":"ERC20InvalidReceiver","inputs":[{"name":"receiver","type":"address","internalType":"address"}]},{"type":"error","name":"ERC20InvalidSender","inputs":[{"name":"sender","type":"address","internalType":"address"}]},{"type":"error","name":"ERC20InvalidSpender","inputs":[{"name":"spender","type":"address","internalType":"address"}]},{"type":"error","name":"ERC2612ExpiredSignature","inputs":[{"name":"deadline","type":"uint256","internalType":"uint256"}]},{"type":"error","name":"ERC2612InvalidSigner","inputs":[{"name":"signer","type":"address","internalType":"address"},{"name":"owner","type":"address","internalType":"address"}]},{"type":"error","name":"EnforcedPause","inputs":[]},{"type":"error","name":"ExpectedPause","inputs":[]},{"type":"error","name":"InvalidAccountNonce","inputs":[{"name":"account","type":"address","internalType":"address"},{"name":"currentNonce","type":"uint256","internalType":"uint256"}]},{"type":"error","name":"InvalidShortString","inputs":[]},{"type":"error","name":"OwnableInvalidOwner","inputs":[{"name":"owner","type":"address","internalType":"address"}]},{"type":"error","name":"OwnableUnauthorizedAccount","inputs":[{"name":"account","type":"address","internalType":"address"}]},{"type":"error","name":"ReentrancyGuardReentrantCall","inputs":[]},{"type":"error","name":"StringTooLong","inputs":[{"name":"str","type":"string","internalType":"string"}]}],"bytecode":{"object":"0x6101606040523480156200001257600080fd5b506040516200256a3803806200256a833981016040819052620000359162000370565b8180604051806040016040528060018152602001603160f81b81525062000061620001c960201b60201c565b858560036200007183826200046b565b5060046200008082826200046b565b50506005805460ff19169055506001600160a01b038116620000bd57604051631e4fbdf760e01b8152600060048201526024015b60405180910390fd5b620000c881620001cd565b50620000d682600662000227565b61012052620000e781600762000227565b61014052815160208084019190912060e052815190820120610100524660a0526200017560e05161010051604080517f8b73c3c69bb8fe3d512ecc4cf759cc79239f7b179b0ffacaa9a75d522b39400f60208201529081019290925260608201524660808201523060a082015260009060c00160405160208183030381529060405280519060200120905090565b60805250503060c052505060016009819055600f8190556000819052600e6020527fa7c5ba7114a813b50159add3a36832908dc83db71d0b9a24c2ad0f83be958207805460ff191690911790555062000591565b3390565b600580546001600160a01b03838116610100818102610100600160a81b031985161790945560405193909204169182907f8be0079c531659141344cd1fd0a4f28419497f9722a3daafe3b4186f6b6457e090600090a35050565b600060208351101562000247576200023f8362000260565b90506200025a565b816200025484826200046b565b5060ff90505b92915050565b600080829050601f815111156200028e578260405163305a27a960e01b8152600401620000b4919062000537565b80516200029b826200056c565b179392505050565b634e487b7160e01b600052604160045260246000fd5b60005b83811015620002d6578181015183820152602001620002bc565b50506000910152565b600082601f830112620002f157600080fd5b81516001600160401b03808211156200030e576200030e620002a3565b604051601f8301601f19908116603f01168101908282118183101715620003395762000339620002a3565b816040528381528660208588010111156200035357600080fd5b62000366846020830160208901620002b9565b9695505050505050565b600080604083850312156200038457600080fd5b82516001600160401b03808211156200039c57600080fd5b620003aa86838701620002df565b93506020850151915080821115620003c157600080fd5b50620003d085828601620002df565b9150509250929050565b600181811c90821680620003ef57607f821691505b6020821081036200041057634e487b7160e01b600052602260045260246000fd5b50919050565b601f82111562000466576000816000526020600020601f850160051c81016020861015620004415750805b601f850160051c820191505b8181101562000462578281556001016200044d565b5050505b505050565b81516001600160401b03811115620004875762000487620002a3565b6200049f81620004988454620003da565b8462000416565b602080601f831160018114620004d75760008415620004be5750858301515b600019600386901b1c1916600185901b17855562000462565b600085815260208120601f198616915b828110156200050857888601518255948401946001909101908401620004e7565b5085821015620005275787850151600019600388901b60f8161c191681555b5050505050600190811b01905550565b602081526000825180602084015262000558816040850160208701620002b9565b601f01601f19169190910160400192915050565b80516020808301519190811015620004105760001960209190910360031b1b16919050565b60805160a05160c05160e051610100516101205161014051611f7e620005ec60003960006111eb015260006111be015260006110470152600061101f01526000610f7a01526000610fa401526000610fce0152611f7e6000f3fe608060405234801561001057600080fd5b50600436106102065760003560e01c8063715018a61161011a57806395d89b41116100ad578063d32b28541161007c578063d32b28541461047c578063d505accf1461049f578063dd62ed3e146104b2578063e0da7a94146104eb578063f2fde38b1461050e57600080fd5b806395d89b4114610445578063a8c5dc331461044d578063a9059cbb14610460578063aa9bbc0c1461047357600080fd5b80638456cb59116100e95780638456cb59146103e557806384b0196e146103ed5780638da5cb5b146104085780638e9d660f1461043257600080fd5b8063715018a6146103a457806379cc6790146103ac5780637c623f71146103bf5780637ecebe00146103d257600080fd5b806323b872dd1161019d57806340c10f191161016c57806340c10f191461033757806342966c681461034a57806354b8fa431461035d5780635c975abb1461037057806370a082311461037b57600080fd5b806323b872dd14610305578063313ce567146103185780633644e515146103275780633f4ba83a1461032f57600080fd5b8063128a3457116101d9578063128a34571461029357806318160ddd146102c15780631e83409a146102c957806320357048146102dc57600080fd5b806305ca8ee31461020b57806306fdde0314610220578063075b1a091461023e578063095ea7b314610270575b600080fd5b61021e61021936600461177f565b610521565b005b610228610556565b60405161023591906117f3565b60405180910390f35b600a5461025890600160a01b90046001600160401b031681565b6040516001600160401b039091168152602001610235565b61028361027e36600461181b565b6105e8565b6040519015158152602001610235565b6102b36102a1366004611847565b600c6020526000908152604090205481565b604051908152602001610235565b6002546102b3565b61021e6102d7366004611847565b610602565b6102586102ea366004611847565b600b602052600090815260409020546001600160401b031681565b610283610313366004611864565b6108b9565b60405160128152602001610235565b6102b36108dd565b61021e6108ec565b61021e61034536600461181b565b6108fe565b61021e6103583660046118a5565b610914565b61021e61036b36600461181b565b61091e565b60055460ff16610283565b6102b3610389366004611847565b6001600160a01b031660009081526020819052604090205490565b61021e610b30565b61021e6103ba36600461181b565b610b42565b61021e6103cd3660046118a5565b610b57565b6102b36103e0366004611847565b610bbb565b61021e610bd9565b6103f5610be9565b60405161023597969594939291906118be565b60055461010090046001600160a01b03165b6040516001600160a01b039091168152602001610235565b61021e610440366004611847565b610c2f565b610228610c59565b600a5461041a906001600160a01b031681565b61028361046e36600461181b565b610c68565b6102b3600f5481565b61028361048a3660046118a5565b600e6020526000908152604090205460ff1681565b61021e6104ad366004611957565b610c76565b6102b36104c03660046119ce565b6001600160a01b03918216600090815260016020908152604080832093909416825291909152205490565b6102836104f936600461177f565b600d6020526000908152604090205460ff1681565b61021e61051c366004611847565b610db0565b610529610deb565b600a80546001600160401b03909216600160a01b0267ffffffffffffffff60a01b19909216919091179055565b60606003805461056590611a07565b80601f016020809104026020016040519081016040528092919081815260200182805461059190611a07565b80156105de5780601f106105b3576101008083540402835291602001916105de565b820191906000526020600020905b8154815290600101906020018083116105c157829003601f168201915b5050505050905090565b6000336105f6818585610e1e565b60019150505b92915050565b61060a610e30565b6001600160a01b0381166000908152600b60205260408120546001600160401b0316908190036106815760405162461bcd60e51b815260206004820152601a60248201527f4174746573746174696f6e20646f6573206e6f7420657869737400000000000060448201526064015b60405180910390fd5b6001600160401b0381166000908152600d602052604090205460ff16156106ea5760405162461bcd60e51b815260206004820152601b60248201527f4174746573746174696f6e20616c726561647920636c61696d656400000000006044820152606401610678565b600a5460405162c44a5160e71b81526001600160401b03831660048201526000916001600160a01b031690636225288090602401600060405180830381865afa15801561073b573d6000803e3d6000fd5b505050506040513d6000823e601f3d908101601f191682016040526107639190810190611bf3565b90506000808261012001518060200190518101906107819190611d12565b6001600160a01b0382166000908152600c60205260409020549193509150808210156107f95760405162461bcd60e51b815260206004820152602160248201527f496e76616c6964206561726e656420616d6f756e742063616c63756c6174696f6044820152603760f91b6064820152608401610678565b60006108058284611d56565b6001600160a01b0385166000908152600c6020526040812080549293508392909190610832908490611d69565b90915550506001600160401b0386166000908152600d60205260409020805460ff191660011790556108648482610e5a565b604080516001600160a01b0389168152602081018390527f47cee97cb7acd717b3c0aa1435d004cd5b3c8c57d70dbceb4e4458bbd60e39d4910160405180910390a15050505050506108b66001600955565b50565b6000336108c7858285610e90565b6108d2858585610f0e565b506001949350505050565b60006108e7610f6d565b905090565b6108f4610deb565b6108fc611098565b565b610906610deb565b6109108282610e5a565b5050565b6108b633826110ea565b610926610deb565b604080516001600160a01b038416602082015280820183905281518082038301815260016060830181815260a0840190945290926000929091906080015b606081526020019060019003908161096457905050604080516001600160a01b038716602082015291925001604051602081830303815290604052816000815181106109b2576109b2611d7c565b6020908102919091018101919091526040805161014081018252600a546001600160401b03600160a01b8204811683526001600160a01b038981166000908152600b875285812054909216958401959095528284018190526060830181905230608084015260a0830181905260c0830181905260e0830181905261010083018690526101208301879052925163b82916cb60e01b81529193169063b82916cb90610a60908590600401611e24565b6020604051808303816000875af1158015610a7f573d6000803e3d6000fd5b505050506040513d601f19601f82011682018060405250810190610aa39190611f54565b6001600160a01b0387166000818152600b60209081526040808320805467ffffffffffffffff19166001600160401b038716908117909155808452600d835292819020805460ff191690558051938452908301919091529192507f5085971cccd35f0f326751bc15a120156c30ea9ecac7123f09fbf9f3b0ecbc1e910160405180910390a1505050505050565b610b38610deb565b6108fc6000611120565b610b4d823383610e90565b61091082826110ea565b610b5f610deb565b6000818152600e602052604090205460ff1615610bb65760405162461bcd60e51b8152602060048201526015602482015274115c1bd8da08125108185b1c9958591e481d5cd959605a1b6044820152606401610678565b600f55565b6001600160a01b0381166000908152600860205260408120546105fc565b610be1610deb565b6108fc61117a565b600060608060008060006060610bfd6111b7565b610c056111e4565b60408051600080825260208201909252600f60f81b9b939a50919850469750309650945092509050565b610c37610deb565b600a80546001600160a01b0319166001600160a01b0392909216919091179055565b60606004805461056590611a07565b6000336105f6818585610f0e565b83421115610c9a5760405163313c898160e11b815260048101859052602401610678565b60007f6e71edae12b1b97f4d1f60370fef10105fa2faae0126114a169c64845d6126c9888888610ce78c6001600160a01b0316600090815260086020526040902080546001810190915590565b6040805160208101969096526001600160a01b0394851690860152929091166060840152608083015260a082015260c0810186905260e0016040516020818303038152906040528051906020012090506000610d4282611211565b90506000610d528287878761123e565b9050896001600160a01b0316816001600160a01b031614610d99576040516325c0072360e11b81526001600160a01b0380831660048301528b166024820152604401610678565b610da48a8a8a610e1e565b50505050505050505050565b610db8610deb565b6001600160a01b038116610de257604051631e4fbdf760e01b815260006004820152602401610678565b6108b681611120565b6005546001600160a01b036101009091041633146108fc5760405163118cdaa760e01b8152336004820152602401610678565b610e2b838383600161126c565b505050565b600260095403610e5357604051633ee5aeb560e01b815260040160405180910390fd5b6002600955565b6001600160a01b038216610e845760405163ec442f0560e01b815260006004820152602401610678565b61091060008383611341565b6001600160a01b038381166000908152600160209081526040808320938616835292905220546000198114610f085781811015610ef957604051637dc7a0d960e11b81526001600160a01b03841660048201526024810182905260448101839052606401610678565b610f088484848403600061126c565b50505050565b6001600160a01b038316610f3857604051634b637e8f60e11b815260006004820152602401610678565b6001600160a01b038216610f625760405163ec442f0560e01b815260006004820152602401610678565b610e2b838383611341565b6000306001600160a01b037f000000000000000000000000000000000000000000000000000000000000000016148015610fc657507f000000000000000000000000000000000000000000000000000000000000000046145b15610ff057507f000000000000000000000000000000000000000000000000000000000000000090565b6108e7604080517f8b73c3c69bb8fe3d512ecc4cf759cc79239f7b179b0ffacaa9a75d522b39400f60208201527f0000000000000000000000000000000000000000000000000000000000000000918101919091527f000000000000000000000000000000000000000000000000000000000000000060608201524660808201523060a082015260009060c00160405160208183030381529060405280519060200120905090565b6110a061134c565b6005805460ff191690557f5db9ee0a495bf2e6ff9c91a7834c1ba4fdd244a5e8aa4e537bd38aeae4b073aa335b6040516001600160a01b03909116815260200160405180910390a1565b6001600160a01b03821661111457604051634b637e8f60e11b815260006004820152602401610678565b61091082600083611341565b600580546001600160a01b03838116610100818102610100600160a81b031985161790945560405193909204169182907f8be0079c531659141344cd1fd0a4f28419497f9722a3daafe3b4186f6b6457e090600090a35050565b61118261136f565b6005805460ff191660011790557f62e78cea01bee320cd4e420270b5ea74000d11b0c9f74754ebdbfc544b05a2586110cd3390565b60606108e77f00000000000000000000000000000000000000000000000000000000000000006006611393565b60606108e77f00000000000000000000000000000000000000000000000000000000000000006007611393565b60006105fc61121e610f6d565b8360405161190160f01b8152600281019290925260228201526042902090565b6000806000806112508888888861143e565b925092509250611260828261150d565b50909695505050505050565b6001600160a01b0384166112965760405163e602df0560e01b815260006004820152602401610678565b6001600160a01b0383166112c057604051634a1406b160e11b815260006004820152602401610678565b6001600160a01b0380851660009081526001602090815260408083209387168352929052208290558015610f0857826001600160a01b0316846001600160a01b03167f8c5be1e5ebec7d5bd14f71427d1e84f3dd0314c0f7b2291e5b200ac8c7c3b9258460405161133391815260200190565b60405180910390a350505050565b610e2b8383836115c6565b60055460ff166108fc57604051638dfc202b60e01b815260040160405180910390fd5b60055460ff16156108fc5760405163d93c066560e01b815260040160405180910390fd5b606060ff83146113ad576113a6836115d9565b90506105fc565b8180546113b990611a07565b80601f01602080910402602001604051908101604052809291908181526020018280546113e590611a07565b80156114325780601f1061140757610100808354040283529160200191611432565b820191906000526020600020905b81548152906001019060200180831161141557829003601f168201915b505050505090506105fc565b600080807f7fffffffffffffffffffffffffffffff5d576e7357a4501ddfe92f46681b20a08411156114795750600091506003905082611503565b604080516000808252602082018084528a905260ff891692820192909252606081018790526080810186905260019060a0016020604051602081039080840390855afa1580156114cd573d6000803e3d6000fd5b5050604051601f1901519150506001600160a01b0381166114f957506000925060019150829050611503565b9250600091508190505b9450945094915050565b600082600381111561152157611521611d92565b0361152a575050565b600182600381111561153e5761153e611d92565b0361155c5760405163f645eedf60e01b815260040160405180910390fd5b600282600381111561157057611570611d92565b036115915760405163fce698f760e01b815260048101829052602401610678565b60038260038111156115a5576115a5611d92565b03610910576040516335e2f38360e21b815260048101829052602401610678565b6115ce61136f565b610e2b838383611618565b606060006115e683611742565b604080516020808252818301909252919250600091906020820181803683375050509182525060208101929092525090565b6001600160a01b0383166116435780600260008282546116389190611d69565b909155506116b59050565b6001600160a01b038316600090815260208190526040902054818110156116965760405163391434e360e21b81526001600160a01b03851660048201526024810182905260448101839052606401610678565b6001600160a01b03841660009081526020819052604090209082900390555b6001600160a01b0382166116d1576002805482900390556116f0565b6001600160a01b03821660009081526020819052604090208054820190555b816001600160a01b0316836001600160a01b03167fddf252ad1be2c89b69c2b068fc378daa952ba7f163c4a11628f55a4df523b3ef8360405161173591815260200190565b60405180910390a3505050565b600060ff8216601f8111156105fc57604051632cd44ac360e21b815260040160405180910390fd5b6001600160401b03811681146108b657600080fd5b60006020828403121561179157600080fd5b813561179c8161176a565b9392505050565b60005b838110156117be5781810151838201526020016117a6565b50506000910152565b600081518084526117df8160208601602086016117a3565b601f01601f19169290920160200192915050565b60208152600061179c60208301846117c7565b6001600160a01b03811681146108b657600080fd5b6000806040838503121561182e57600080fd5b823561183981611806565b946020939093013593505050565b60006020828403121561185957600080fd5b813561179c81611806565b60008060006060848603121561187957600080fd5b833561188481611806565b9250602084013561189481611806565b929592945050506040919091013590565b6000602082840312156118b757600080fd5b5035919050565b60ff60f81b881681526000602060e060208401526118df60e084018a6117c7565b83810360408501526118f1818a6117c7565b606085018990526001600160a01b038816608086015260a0850187905284810360c08601528551808252602080880193509091019060005b8181101561194557835183529284019291840191600101611929565b50909c9b505050505050505050505050565b600080600080600080600060e0888a03121561197257600080fd5b873561197d81611806565b9650602088013561198d81611806565b95506040880135945060608801359350608088013560ff811681146119b157600080fd5b9699959850939692959460a0840135945060c09093013592915050565b600080604083850312156119e157600080fd5b82356119ec81611806565b915060208301356119fc81611806565b809150509250929050565b600181811c90821680611a1b57607f821691505b602082108103611a3b57634e487b7160e01b600052602260045260246000fd5b50919050565b634e487b7160e01b600052604160045260246000fd5b60405161014081016001600160401b0381118282101715611a7a57611a7a611a41565b60405290565b604051601f8201601f191681016001600160401b0381118282101715611aa857611aa8611a41565b604052919050565b8051611abb8161176a565b919050565b8051611abb81611806565b805160048110611abb57600080fd5b80518015158114611abb57600080fd5b600082601f830112611afb57600080fd5b81516001600160401b03811115611b1457611b14611a41565b611b27601f8201601f1916602001611a80565b818152846020838601011115611b3c57600080fd5b611b4d8260208301602087016117a3565b949350505050565b600082601f830112611b6657600080fd5b815160206001600160401b0380831115611b8257611b82611a41565b8260051b611b91838201611a80565b9384528581018301938381019088861115611bab57600080fd5b84880192505b85831015611be757825184811115611bc95760008081fd5b611bd78a87838c0101611aea565b8352509184019190840190611bb1565b98975050505050505050565b600060208284031215611c0557600080fd5b81516001600160401b0380821115611c1c57600080fd5b908301906101408286031215611c3157600080fd5b611c39611a57565b611c4283611ab0565b8152611c5060208401611ab0565b6020820152611c6160408401611ab0565b6040820152611c7260608401611ab0565b6060820152611c8360808401611ac0565b6080820152611c9460a08401611ab0565b60a0820152611ca560c08401611acb565b60c0820152611cb660e08401611ada565b60e08201526101008084015183811115611ccf57600080fd5b611cdb88828701611b55565b8284015250506101208084015183811115611cf557600080fd5b611d0188828701611aea565b918301919091525095945050505050565b60008060408385031215611d2557600080fd5b8251611d3081611806565b6020939093015192949293505050565b634e487b7160e01b600052601160045260246000fd5b818103818111156105fc576105fc611d40565b808201808211156105fc576105fc611d40565b634e487b7160e01b600052603260045260246000fd5b634e487b7160e01b600052602160045260246000fd5b60048110611dc657634e487b7160e01b600052602160045260246000fd5b9052565b60008282518085526020808601955060208260051b8401016020860160005b84811015611e1757601f19868403018952611e058383516117c7565b98840198925090830190600101611de9565b5090979650505050505050565b60808152611e3e6080820183516001600160401b03169052565b60006020830151611e5a60a08401826001600160401b03169052565b5060408301516001600160401b0390811660c084015260608401511660e083015260808301516001600160a01b0381166101008085019190915260a08501519150610120611eb2818601846001600160401b03169052565b60c08601519250610140611ec881870185611da8565b60e08701511515610160870152828701516101808701919091529250611ef26101c0860184611dca565b90860151858203607f19016101a08701529092509050611f1282826117c7565b9150508281036020840152611f2b816000815260200190565b838103604085015260008152905060208101838103606085015260008152905060208101611b4d565b600060208284031215611f6657600080fd5b815161179c8161176a56fea164736f6c6343000818000a","linkReferences":{}},"methodIdentifiers":{"DOMAIN_SEPARATOR()":"3644e515","allowance(address,address)":"dd62ed3e","approve(address,uint256)":"095ea7b3","attestationClaimed(uint64)":"e0da7a94","attestations(address)":"20357048","balanceOf(address)":"70a08231","burn(uint256)":"42966c68","burnFrom(address,uint256)":"79cc6790","claim(address)":"1e83409a","decimals()":"313ce567","eip712Domain()":"84b0196e","epochId()":"aa9bbc0c","mint(address,uint256)":"40c10f19","name()":"06fdde03","nonces(address)":"7ecebe00","owner()":"8da5cb5b","pause()":"8456cb59","paused()":"5c975abb","permit(address,address,uint256,uint256,uint8,bytes32,bytes32)":"d505accf","renounceOwnership()":"715018a6","schemaId()":"075b1a09","setAttestation(address,uint256)":"54b8fa43","setEpochId(uint256)":"7c623f71","setSPInstance(address)":"8e9d660f","setSchemaID(uint64)":"05ca8ee3","spInstance()":"a8c5dc33","symbol()":"95d89b41","totalClaimedAmount(address)":"128a3457","totalSupply()":"18160ddd","transfer(address,uint256)":"a9059cbb","transferFrom(address,address,uint256)":"23b872dd","transferOwnership(address)":"f2fde38b","unpause()":"3f4ba83a","usedEpochId(uint256)":"d32b2854"},"storageLayout":{"storage":[{"astId":963,"contract":"src/BoostProtocol.sol:BoostProtocol","label":"_balances","offset":0,"slot":"0","type":"t_mapping(t_address,t_uint256)"},{"astId":969,"contract":"src/BoostProtocol.sol:BoostProtocol","label":"_allowances","offset":0,"slot":"1","type":"t_mapping(t_address,t_mapping(t_address,t_uint256))"},{"astId":971,"contract":"src/BoostProtocol.sol:BoostProtocol","label":"_totalSupply","offset":0,"slot":"2","type":"t_uint256"},{"astId":973,"contract":"src/BoostProtocol.sol:BoostProtocol","label":"_name","offset":0,"slot":"3","type":"t_string_storage"},{"astId":975,"contract":"src/BoostProtocol.sol:BoostProtocol","label":"_symbol","offset":0,"slot":"4","type":"t_string_storage"},{"astId":1936,"contract":"src/BoostProtocol.sol:BoostProtocol","label":"_paused","offset":0,"slot":"5","type":"t_bool"},{"astId":639,"contract":"src/BoostProtocol.sol:BoostProtocol","label":"_owner","offset":1,"slot":"5","type":"t_address"},{"astId":3080,"contract":"src/BoostProtocol.sol:BoostProtocol","label":"_nameFallback","offset":0,"slot":"6","type":"t_string_storage"},{"astId":3082,"contract":"src/BoostProtocol.sol:BoostProtocol","label":"_versionFallback","offset":0,"slot":"7","type":"t_string_storage"},{"astId":1873,"contract":"src/BoostProtocol.sol:BoostProtocol","label":"_nonces","offset":0,"slot":"8","type":"t_mapping(t_address,t_uint256)"},{"astId":2055,"contract":"src/BoostProtocol.sol:BoostProtocol","label":"_status","offset":0,"slot":"9","type":"t_uint256"},{"astId":4538,"contract":"src/BoostProtocol.sol:BoostProtocol","label":"spInstance","offset":0,"slot":"10","type":"t_contract(ISP)495"},{"astId":4540,"contract":"src/BoostProtocol.sol:BoostProtocol","label":"schemaId","offset":20,"slot":"10","type":"t_uint64"},{"astId":4544,"contract":"src/BoostProtocol.sol:BoostProtocol","label":"attestations","offset":0,"slot":"11","type":"t_mapping(t_address,t_uint64)"},{"astId":4548,"contract":"src/BoostProtocol.sol:BoostProtocol","label":"totalClaimedAmount","offset":0,"slot":"12","type":"t_mapping(t_address,t_uint256)"},{"astId":4552,"contract":"src/BoostProtocol.sol:BoostProtocol","label":"attestationClaimed","offset":0,"slot":"13","type":"t_mapping(t_uint64,t_bool)"},{"astId":4556,"contract":"src/BoostProtocol.sol:BoostProtocol","label":"usedEpochId","offset":0,"slot":"14","type":"t_mapping(t_uint256,t_bool)"},{"astId":4558,"contract":"src/BoostProtocol.sol:BoostProtocol","label":"epochId","offset":0,"slot":"15","type":"t_uint256"}],"types":{"t_address":{"encoding":"inplace","label":"address","numberOfBytes":"20"},"t_bool":{"encoding":"inplace","label":"bool","numberOfBytes":"1"},"t_contract(ISP)495":{"encoding":"inplace","label":"contract ISP","numberOfBytes":"20"},"t_mapping(t_address,t_mapping(t_address,t_uint256))":{"encoding":"mapping","key":"t_address","label":"mapping(address => mapping(address => uint256))","numberOfBytes":"32","value":"t_mapping(t_address,t_uint256)"},"t_mapping(t_address,t_uint256)":{"encoding":"mapping","key":"t_address","label":"mapping(address => uint256)","numberOfBytes":"32","value":"t_uint256"},"t_mapping(t_address,t_uint64)":{"encoding":"mapping","key":"t_address","label":"mapping(address => uint64)","numberOfBytes":"32","value":"t_uint64"},"t_mapping(t_uint256,t_bool)":{"encoding":"mapping","key":"t_uint256","label":"mapping(uint256 => bool)","numberOfBytes":"32","value":"t_bool"},"t_mapping(t_uint64,t_bool)":{"encoding":"mapping","key":"t_uint64","label":"mapping(uint64 => bool)","numberOfBytes":"32","value":"t_bool"},"t_string_storage":{"encoding":"bytes","label":"string","numberOfBytes":"32"},"t_uint256":{"encoding":"inplace","label":"uint256","numberOfBytes":"32"},"t_uint64":{"encoding":"inplace","label":"uint64","numberOfBytes":"8"}}},"id":28}